:020000040800F2
:1000000000060020ED000008F5000008F7000008D9
:10001000F9000008FB000008FD00000800000000D7
:10002000000000000000000000000000FF000008C9
:10003000010100080000000003010008050100089C
:100040000701000807010008070100080701000870
:100050000701000807010008070100080701000860
:100060000701000807010008070100080701000850
:100070000701000807010008070100080701000840
:100080000701000807010008070100080701000830
:100090000701000807010008070100080701000820
:1000A0000701000807010008070100080701000810
:1000B0000701000807010008070100080701000800
:1000C00007010008070100080701000807010008F0
:1000D00007010008070100080701000807010008E0
:1000E00007010008070100080701000809488047C8
:1000F00009480047FEE7FEE7FEE7FEE7FEE7FEE70A
:10010000FEE7FEE7FEE7FEE704480549054A064B21
:100110007047000061020008C902000800000020CA
:1001200000060020000200200002002070477047F7
:100130007047000080B500F001F880BD84B0002059
:100140000390029041F20001C4F20201086840F4F9
:1001500080300860FFE741F20000C4F2020000684E
:1001600000F400300290039801300390FFE70299F9
:100170000020019039B9FFE70398B0F5A06018BFDF
:1001800001200190FFE70198C0070028E3D1FFE7B5
:1001900041F20000C4F2020000688003002803D589
:1001A000FFE70120029002E000200290FFE70298A2
:1001B000012851D1FFE742F20001C4F202010868B0
:1001C00040F010000860086820F007000860086828
:1001D00040F00200086041F20401C4F20201009103
:1001E0000868086008680860086840F48060086073
:1001F000086820F47C100860086840F4E810086083
:1002000041F20001C4F20201086840F08070086009
:10021000FFE741F20000C4F20200006880010028FC
:1002200001D4FFE7F5E741F20401C4F202010868D6
:1002300020F003000860086840F002000860FFE753
:1002400041F20400C4F20200006800F00C0008282B
:1002500001D0FFE7F4E700E0FFE704B070470000DB
:1002600080B541F20002C4F20202106840F00100C1
:10027000106041F20401C4F2020108680023CFF6C5
:10028000FF031840086010684FF6FF73CFF6F6635F
:1002900018401060106820F480201060086820F476
:1002A000FE00086041F20801C4F202014FF41F0091
:1002B0000860FFF73FFF4EF60851CEF200014FF005
:1002C0000060086080BD000000F00FFC00F015FC2D
:1002D0004FF000004FF0000140F23F134FF0EF04E9
:1002E0004FF0000A00F062F94FF01F0A00F047FAE1
:1002F0004FF0FF044FF0FF064FF0000C4FF00105E8
:1003000000F077F900F0DBFA4FF0020500F071F928
:1003100000F0C7FA4FF0030500F06BF900F0B3FAF4
:100320004FF0040500F065F900F08BFA4FF0050579
:1003300000F05FF900F009FA4FF0060500F059F9F6
:1003400000F0F5F94FF0010500F0A1FB00F0E1F934
:100350004FF0020500F09BFB00F0B9F94FF00305E8
:1003600000F095FB00F0A5F94FF0040500F08FFBBD
:1003700000F08FF94FF0050500F089FB00F07FF9E0
:100380004FF0060500F083FB00F067F94FF007051A
:1003900000F07DFB00F051F94FF0080500F077FB0D
:1003A00000F0DBF9AAE70FB57E4908684FF00103BA
:1003B0004FEA03236FEA030300EA030008807A4947
:1003C0000A70784908684FF0010340EA032008806A
:1003D0000FBD0FB5734908684FF0010340EA432091
:1003E0000880704908684FF001034FEAC3136FEAB1
:1003F000030300EA03000880FFF7D5FF0FBD0FB528
:10040000684908684FF0010340EA432008806549C5
:1004100008684FF0010340EAC3100880FFF7C3FFEC
:100420000FBD0FB55F4908684FF0010340EAC330C4
:10043000088000F0E7FB5B4908684FF001034FEAD2
:10044000C3336FEA030300EA0300088000F0DAFB1D
:10045000544908684FF0010340EAC330088000F0B7
:10046000D1FB504908684FF0010340EA831008604F
:100470004C4908684FF0010340EA032008804949CD
:1004800008684FF0010340EA4320088045490868A6
:100490004FF001034FEA83136FEA030300EA0300FE
:1004A00008604FF0C502FFF794FF4FF07F02FFF79F
:1004B000A6FF4FF00002FFF7A2FF4FF03602FFF752
:1004C00088FF4FF06802FFF79AFF4FF03A02FFF7FC
:1004D00080FF4FF05502FFF792FF4FF01102FFF738
:1004E00078FF00F08FFB4FF02902FFF772FF4FF00B
:1004F0002002FFF76EFF4FF02C02FFF76AFF0FBDDF
:100500001FB54FF02A02FFF764FF02464FEA12229E
:10051000FFF775FF0246FFF772FF0A464FEA122205
:10052000FFF76DFF0A46FFF76AFF4FF02B02FFF758
:1005300050FF1A464FEA1222FFF761FF1A46FFF7F3
:100540005EFF22464FEA1222FFF759FF2246FFF7CD
:1005500056FF4FF02C02FFF73CFF1FBD2DE93F4433
:10056000104B1C684FF001054FEA85156FEA050531
:1005700004EA05041C600B4600F1010103F10104CB
:10058000FFF7BEFF4FF02C02FFF723FF52464FEA62
:100590001222FFF734FF5246FFF731FFBDE83F84D8
:1005A00004E000000C0C01400C0801402DE9FF5F45
:1005B0001FB402B408B402BC08BCFFF7A1FF1FBC03
:1005C0001B1A03F10103641A04F1010403FB04F391
:1005D0004FF02C02FFF7FDFE52464FEA1222FFF7C2
:1005E0000EFF5246FFF70BFF5B1E002BF4DCBDE84D
:1005F000FF9F2DE9FC5F4FF08201012D09D0022DF4
:100600000AD0032D0BD0042D0CD0052D0DD0062EB5
:100610000ED04FF014000EE04FF046000BE04FF00C
:10062000A00008E04FF0D20005E04FF0FA0002E031
:1006300040F21D10FFE7BDE8FC9F2DE9FF5F00F0D1
:10064000F4F900F0E6F900F0D6F900F0C8F900F08E
:10065000AEF900F0A2F9BDE8FF9F2DE9FF5F00F0C1
:10066000E4F900F0D6F900F0C6F900F0B8F900F0AE
:100670009EF900F092F900F0A6F9BDE8FF9F2DE980
:10068000FF5F00F0D2F900F0B6F900F090F9BDE894
:10069000FF9F2DE9FF5F00F0C8F900F0BAF900F004
:1006A00092F900F09CF900F082F900F076F9BDE8CB
:1006B000FF9F2DE9FF5F00F0B8F900F0AAF900F004
:1006C0008EF900F074F900F068F9BDE8FF9F2DE99C
:1006D000FF5F00F09EF900F08EF900F080F900F065
:1006E00066F9BDE8FF9F00B5002A36D0012A2CD05C
:1006F000022A1CD0032A0CD0042AE8D0052AD8D01C
:10070000062AC6D0072ABAD0082AA6D0092A94D029
:1007100000BD2DE9FF5F00F088F900F06CF900F0F2
:100720005EF900F044F900F038F9BDE8FF9F2DE9CB
:10073000FF5F00F07AF900F046F900F05CF900F094
:100740004EF900F02AF9BDE8FF9F2DE9FF5F00F0A8
:1007500052F900F02CF9BDE8FF9F2DE9FF5F00F092
:100760004AF900F024F900F060F900F052F900F0C5
:1007700042F900F028F900F010F9BDE8FF9F2DE9DB
:10078000FF5F4FF078004FF0960100F1140301F184
:100790001404FFF70BFF4FF078004FF0BE0100F19B
:1007A000140301F11404FFF701FFBDE8FF9F2DE9D9
:1007B000FF5F00F0E6F800F0D8F800F0C8F800F0AD
:1007C000BAF800F0A0F800F094F8BDE8FF9F2DE91A
:1007D000FF5F00F0D6F800F0C8F800F0B8F800F0BD
:1007E000AAF800F090F800F084F800F098F8BDE85E
:1007F000FF9F2DE9FF5F00F0C4F800F0A8F800F0BB
:1008000082F8BDE8FF9F2DE9FF5F00F0BAF800F025
:10081000ACF800F084F800F08EF800F074F800F006
:1008200068F8BDE8FF9F2DE9FF5F00F0AAF800F02F
:100830009CF800F080F800F066F800F05AF8BDE887
:10084000FF9F2DE9FF5F00F090F800F080F800F0C6
:1008500072F800F058F8BDE8FF9F00B5002A36D0C6
:10086000012A2CD0022A1CD0032A0CD0042AE8D05A
:10087000052AD8D0062AC6D0072ABAD0082AA6D078
:10088000092A94D000BD2DE9FF5F00F07AF800F04E
:100890005EF800F050F800F036F800F02AF8BDE8F5
:1008A000FF9F2DE9FF5F00F06CF800F038F800F0D2
:1008B0004EF800F040F800F01CF8BDE8FF9F2DE96D
:1008C000FF5F00F044F800F01EF8BDE8FF9F2DE93F
:1008D000FF5F00F03CF800F016F800F052F800F06E
:1008E00044F800F034F800F01AF800F002F8BDE81F
:1008F000FF9F2DE9FF5F00F11E0301F11404FFF7D4
:1009000055FEBDE8FF9F2DE9FF5F00F1150000F1E6
:10091000090301F13204FFF749FEBDE8FF9F2DE90D
:10092000FF5F01F1140100F1090301F12804FFF751
:100930003DFEBDE8FF9F2DE9FF5F01F1280100F1B9
:100940001E0301F11404FFF731FEBDE8FF9F2DE9FE
:10095000FF5F00F1150001F1320100F1090301F11F
:100960003204FFF723FEBDE8FF9F2DE9FF5F01F191
:100970003C0100F1090301F12804FFF717FEBDE86F
:10098000FF9F2DE9FF5F01F1500100F11E0301F10E
:100990001404FFF70BFEBDE8FF9F2DE9FF5F00F198
:1009A000190301F10804FFF701FEBDE8FF9F2DE9DF
:1009B000FF5F00F1110000F1080301F11404FFF7DB
:1009C000F5FDBDE8FF9F2DE9FF5F01F1080100F192
:1009D000080301F10804FFF7E9FDBDE8FF9F2DE9D9
:1009E000FF5F01F1100100F1190301F10804FFF7A5
:1009F000DDFDBDE8FF9F2DE9FF5F00F1110001F172
:100A0000140100F1080301F11404FFF7CFFDBDE864
:100A1000FF9F2DE9FF5F01F1220100F1080301F1C1
:100A20001004FFF7C3FDBDE8FF9F2DE9FF5F01F153
:100A3000200100F1190301F10804FFF7B7FDBDE83B
:100A4000FF9F2DE9FF5F4FF000004FF076014FF45C
:100A5000A0734FF07A04FFF7A9FDBDE8FF9F2DE9D1
:100A6000FF5F4FF087004FF01E0100F10A0301F114
:100A70000A04FFF79BFD4FF0B9004FF01E0100F193
:100A80000A0301F10A04FFF791FDBDE8FF9F2DE97C
:100A9000FF5F4FF01401012D0DD0022D0ED0032D5C
:100AA0000FD0042D10D0052D11D0062D12D0072DFA
:100AB00013D0082D14D04FF0640014E04FF08200E2
:100AC00011E04FF096000EE04FF0B4000BE04FF055
:100AD000C80008E04FF0E60005E04FF4827002E045
:100AE0004FF49170FFE7BDE8FF9F2DE9FF5F00F035
:100AF00059F8FFF796FCBDE8FF9F2DE9FF5F4A48D4
:100B0000016841F0805141F000610160474801688F
:100B100041F4807101604648016841F48031016010
:100B200021F4803101604348016841F00101016016
:100B300000F068F8016811F0020FFBD03C48016832
:100B400021F4407141F4007141F4004101603A48E0
:100B5000416841F01001416049F63F424FEA1243BB
:100B600083604FEA02434FEA1343C360416821F0B8
:100B700010014160BDE8FF9F14B53048018830483E
:100B800002884FEA014141EA02034FF46164B3FB7A
:100B9000F4F000FB14334FF03C04B3FBF4F101FB21
:100BA000143314BD07B5274801684FF0010241EA2C
:100BB0008201016024484FF03332026023484FF035
:100BC000333202601F4801684FF0010241EA02110E
:100BD00001601F4801684FF0883101601D484FF0E7
:100BE00000010160174801684FF0010241EAC201AB
:100BF000016019484FF03331016018484FF033312C
:100C0000016007BD2DE9FF5F154801380028FCDCB5
:100C1000BDE8FF9F2DE9FF5F1148B0F57A7000280D
:100C2000FBDCBDE8FF9F00001C100240007000408C
:100C300020100240241002400028004018280040E4
:100C40001C28004018100240000801400408014020
:100C5000041001400C100140000C0140040C014044
:040C600004605600D6
:04000005080000ED02
:00000001FF
